{
  "contractName": "Evote",
  "abi": [
    {
      "anonymous": false,
      "inputs": [
        {
          "indexed": false,
          "internalType": "string",
          "name": "accountAddress",
          "type": "string"
        },
        {
          "indexed": false,
          "internalType": "string",
          "name": "email",
          "type": "string"
        }
      ],
      "name": "aadharCreated",
      "type": "event"
    },
    {
      "anonymous": false,
      "inputs": [
        {
          "indexed": false,
          "internalType": "uint256",
          "name": "id",
          "type": "uint256"
        },
        {
          "indexed": false,
          "internalType": "string",
          "name": "name",
          "type": "string"
        },
        {
          "indexed": false,
          "internalType": "string",
          "name": "age",
          "type": "string"
        },
        {
          "indexed": false,
          "internalType": "string",
          "name": "party",
          "type": "string"
        },
        {
          "indexed": false,
          "internalType": "string",
          "name": "qualification",
          "type": "string"
        },
        {
          "indexed": false,
          "internalType": "string",
          "name": "imageUrl",
          "type": "string"
        },
        {
          "indexed": false,
          "internalType": "uint256",
          "name": "voteCount",
          "type": "uint256"
        }
      ],
      "name": "candidatesCreated",
      "type": "event"
    },
    {
      "anonymous": false,
      "inputs": [
        {
          "indexed": false,
          "internalType": "string",
          "name": "accountAddress",
          "type": "string"
        },
        {
          "indexed": false,
          "internalType": "string",
          "name": "aadhar",
          "type": "string"
        }
      ],
      "name": "emailCreated",
      "type": "event"
    },
    {
      "anonymous": false,
      "inputs": [
        {
          "indexed": false,
          "internalType": "string",
          "name": "username",
          "type": "string"
        },
        {
          "indexed": false,
          "internalType": "string",
          "name": "email",
          "type": "string"
        },
        {
          "indexed": false,
          "internalType": "string",
          "name": "password",
          "type": "string"
        },
        {
          "indexed": false,
          "internalType": "bool",
          "name": "isVoted",
          "type": "bool"
        },
        {
          "indexed": false,
          "internalType": "string",
          "name": "aadhar",
          "type": "string"
        }
      ],
      "name": "userCreated",
      "type": "event"
    },
    {
      "inputs": [
        {
          "internalType": "string",
          "name": "",
          "type": "string"
        }
      ],
      "name": "aadharList",
      "outputs": [
        {
          "internalType": "string",
          "name": "accountAddress",
          "type": "string"
        },
        {
          "internalType": "string",
          "name": "email",
          "type": "string"
        }
      ],
      "stateMutability": "view",
      "type": "function",
      "constant": true
    },
    {
      "inputs": [],
      "name": "candidatesCount",
      "outputs": [
        {
          "internalType": "uint256",
          "name": "",
          "type": "uint256"
        }
      ],
      "stateMutability": "view",
      "type": "function",
      "constant": true
    },
    {
      "inputs": [
        {
          "internalType": "uint256",
          "name": "",
          "type": "uint256"
        }
      ],
      "name": "candidatesList",
      "outputs": [
        {
          "internalType": "uint256",
          "name": "id",
          "type": "uint256"
        },
        {
          "internalType": "string",
          "name": "name",
          "type": "string"
        },
        {
          "internalType": "string",
          "name": "age",
          "type": "string"
        },
        {
          "internalType": "string",
          "name": "party",
          "type": "string"
        },
        {
          "internalType": "string",
          "name": "qualification",
          "type": "string"
        },
        {
          "internalType": "string",
          "name": "imageUrl",
          "type": "string"
        },
        {
          "internalType": "uint256",
          "name": "voteCount",
          "type": "uint256"
        }
      ],
      "stateMutability": "view",
      "type": "function",
      "constant": true
    },
    {
      "inputs": [],
      "name": "changeState",
      "outputs": [
        {
          "internalType": "string",
          "name": "",
          "type": "string"
        }
      ],
      "stateMutability": "view",
      "type": "function",
      "constant": true
    },
    {
      "inputs": [
        {
          "internalType": "string",
          "name": "",
          "type": "string"
        }
      ],
      "name": "emailList",
      "outputs": [
        {
          "internalType": "string",
          "name": "accountAddress",
          "type": "string"
        },
        {
          "internalType": "string",
          "name": "aadhar",
          "type": "string"
        }
      ],
      "stateMutability": "view",
      "type": "function",
      "constant": true
    },
    {
      "inputs": [],
      "name": "userCount",
      "outputs": [
        {
          "internalType": "uint256",
          "name": "",
          "type": "uint256"
        }
      ],
      "stateMutability": "view",
      "type": "function",
      "constant": true
    },
    {
      "inputs": [
        {
          "internalType": "string",
          "name": "",
          "type": "string"
        }
      ],
      "name": "usersList",
      "outputs": [
        {
          "internalType": "string",
          "name": "username",
          "type": "string"
        },
        {
          "internalType": "string",
          "name": "email",
          "type": "string"
        },
        {
          "internalType": "string",
          "name": "password",
          "type": "string"
        },
        {
          "internalType": "bool",
          "name": "isVoted",
          "type": "bool"
        },
        {
          "internalType": "string",
          "name": "aadhar",
          "type": "string"
        }
      ],
      "stateMutability": "view",
      "type": "function",
      "constant": true
    },
    {
      "inputs": [
        {
          "internalType": "string",
          "name": "_username",
          "type": "string"
        },
        {
          "internalType": "string",
          "name": "_email",
          "type": "string"
        },
        {
          "internalType": "string",
          "name": "_password",
          "type": "string"
        },
        {
          "internalType": "string",
          "name": "_aadhar",
          "type": "string"
        }
      ],
      "name": "createUser",
      "outputs": [],
      "stateMutability": "nonpayable",
      "type": "function"
    },
    {
      "inputs": [
        {
          "internalType": "string",
          "name": "_name",
          "type": "string"
        },
        {
          "internalType": "string",
          "name": "_age",
          "type": "string"
        },
        {
          "internalType": "string",
          "name": "_party",
          "type": "string"
        },
        {
          "internalType": "string",
          "name": "_qualification",
          "type": "string"
        },
        {
          "internalType": "string",
          "name": "_imageUrl",
          "type": "string"
        }
      ],
      "name": "createCandidate",
      "outputs": [],
      "stateMutability": "nonpayable",
      "type": "function"
    },
    {
      "inputs": [
        {
          "internalType": "uint256",
          "name": "id",
          "type": "uint256"
        },
        {
          "internalType": "string",
          "name": "_email",
          "type": "string"
        }
      ],
      "name": "addVote",
      "outputs": [],
      "stateMutability": "nonpayable",
      "type": "function"
    },
    {
      "inputs": [
        {
          "internalType": "string",
          "name": "_name",
          "type": "string"
        }
      ],
      "name": "changeStates",
      "outputs": [],
      "stateMutability": "nonpayable",
      "type": "function"
    },
    {
      "inputs": [
        {
          "internalType": "string",
          "name": "_email",
          "type": "string"
        }
      ],
      "name": "appendIsVote",
      "outputs": [],
      "stateMutability": "nonpayable",
      "type": "function"
    },
    {
      "inputs": [
        {
          "internalType": "string",
          "name": "_aadharNum",
          "type": "string"
        },
        {
          "internalType": "string",
          "name": "_accountAddress",
          "type": "string"
        },
        {
          "internalType": "string",
          "name": "_email",
          "type": "string"
        }
      ],
      "name": "createAdharEmail",
      "outputs": [],
      "stateMutability": "nonpayable",
      "type": "function"
    }
  ],
  "bytecode": "0x608060405260008055600060015560405180602001604052806000815250600290805190602001906200003492919062000049565b503480156200004257600080fd5b506200015e565b828054620000579062000128565b90600052602060002090601f0160209004810192826200007b5760008555620000c7565b82601f106200009657805160ff1916838001178555620000c7565b82800160010185558215620000c7579182015b82811115620000c6578251825591602001919060010190620000a9565b5b509050620000d69190620000da565b5090565b5b80821115620000f5576000816000905550600101620000db565b5090565b7f4e487b7100000000000000000000000000000000000000000000000000000000600052602260045260246000fd5b600060028204905060018216806200014157607f821691505b60208210811415620001585762000157620000f9565b5b50919050565b611955806200016e6000396000f3fe608060405234801561001057600080fd5b50600436106100cf5760003560e01c80634cbce6ac1161008c5780638412e667116100665780638412e66714610216578063df2d5ec714610234578063f9edfa0d1461026a578063fdc1590914610286576100cf565b80634cbce6ac146101aa5780636f7fcddb146101de57806378c4c488146101fa576100cf565b806301a8445b146100d457806307973ccf146101055780630f9181e1146101235780630fcaac1b146101545780632d35a8a2146101705780633541a13d1461018e575b600080fd5b6100ee60048036038101906100e99190611168565b6102a2565b6040516100fc929190611239565b60405180910390f35b61010d6103ec565b60405161011a9190611289565b60405180910390f35b61013d60048036038101906101389190611168565b6103f2565b60405161014b929190611239565b60405180910390f35b61016e600480360381019061016991906112d0565b61053c565b005b6101786105a6565b6040516101859190611289565b60405180910390f35b6101a860048036038101906101a3919061132c565b6105ac565b005b6101c460048036038101906101bf9190611168565b610690565b6040516101d59594939291906113ee565b60405180910390f35b6101f860048036038101906101f3919061145d565b610909565b005b610214600480360381019061020f9190611168565b610a46565b005b61021e610a83565b60405161022b9190611534565b60405180910390f35b61024e60048036038101906102499190611556565b610b11565b6040516102619796959493929190611583565b60405180910390f35b610284600480360381019061027f9190611168565b610dfb565b005b6102a0600480360381019061029b9190611615565b610e15565b005b6005818051602081018201805184825260208301602085012081835280955050505050506000915090508060000180546102db9061174b565b80601f01602080910402602001604051908101604052809291908181526020018280546103079061174b565b80156103545780601f1061032957610100808354040283529160200191610354565b820191906000526020600020905b81548152906001019060200180831161033757829003601f168201915b5050505050908060010180546103699061174b565b80601f01602080910402602001604051908101604052809291908181526020018280546103959061174b565b80156103e25780601f106103b7576101008083540402835291602001916103e2565b820191906000526020600020905b8154815290600101906020018083116103c557829003601f168201915b5050505050905082565b60015481565b60048180516020810182018051848252602083016020850120818352809550505050505060009150905080600001805461042b9061174b565b80601f01602080910402602001604051908101604052809291908181526020018280546104579061174b565b80156104a45780601f10610479576101008083540402835291602001916104a4565b820191906000526020600020905b81548152906001019060200180831161048757829003601f168201915b5050505050908060010180546104b99061174b565b80601f01602080910402602001604051908101604052809291908181526020018280546104e59061174b565b80156105325780601f1061050757610100808354040283529160200191610532565b820191906000526020600020905b81548152906001019060200180831161051557829003601f168201915b5050505050905082565b600360008381526020019081526020016000206006016000815480929190610563906117ac565b9190505550600160068260405161057a9190611831565b908152602001604051809103902060030160006101000a81548160ff0219169083151502179055505050565b60005481565b6040518060400160405280838152602001828152506005846040516105d19190611831565b908152602001604051809103902060008201518160000190805190602001906105fb929190610f6b565b506020820151816001019080519060200190610618929190610f6b565b509050508260068260405161062d9190611831565b90815260200160405180910390206004019080519060200190610651929190610f6b565b507f67a61a7d93b3f5c541318aa6f015f8879eb4975e7a1c7534d29451d68d7468d88282604051610683929190611239565b60405180910390a1505050565b6006818051602081018201805184825260208301602085012081835280955050505050506000915090508060000180546106c99061174b565b80601f01602080910402602001604051908101604052809291908181526020018280546106f59061174b565b80156107425780601f1061071757610100808354040283529160200191610742565b820191906000526020600020905b81548152906001019060200180831161072557829003601f168201915b5050505050908060010180546107579061174b565b80601f01602080910402602001604051908101604052809291908181526020018280546107839061174b565b80156107d05780601f106107a5576101008083540402835291602001916107d0565b820191906000526020600020905b8154815290600101906020018083116107b357829003601f168201915b5050505050908060020180546107e59061174b565b80601f01602080910402602001604051908101604052809291908181526020018280546108119061174b565b801561085e5780601f106108335761010080835404028352916020019161085e565b820191906000526020600020905b81548152906001019060200180831161084157829003601f168201915b5050505050908060030160009054906101000a900460ff16908060040180546108869061174b565b80601f01602080910402602001604051908101604052809291908181526020018280546108b29061174b565b80156108ff5780601f106108d4576101008083540402835291602001916108ff565b820191906000526020600020905b8154815290600101906020018083116108e257829003601f168201915b5050505050905085565b6001600081548092919061091c906117ac565b91905055506040518060a001604052808581526020018481526020018381526020016000151581526020018281525060068460405161095b9190611831565b90815260200160405180910390206000820151816000019080519060200190610985929190610f6b565b5060208201518160010190805190602001906109a2929190610f6b565b5060408201518160020190805190602001906109bf929190610f6b565b5060608201518160030160006101000a81548160ff02191690831515021790555060808201518160040190805190602001906109fc929190610f6b565b509050507f5052cedc2aa0ebaa8524354a1355c5e334e34e70f11b9a1a3add36347dd63a6b848484600085604051610a389594939291906113ee565b60405180910390a150505050565b6001600682604051610a589190611831565b908152602001604051809103902060030160006101000a81548160ff02191690831515021790555050565b60028054610a909061174b565b80601f0160208091040260200160405190810160405280929190818152602001828054610abc9061174b565b8015610b095780601f10610ade57610100808354040283529160200191610b09565b820191906000526020600020905b815481529060010190602001808311610aec57829003601f168201915b505050505081565b6003602052806000526040600020600091509050806000015490806001018054610b3a9061174b565b80601f0160208091040260200160405190810160405280929190818152602001828054610b669061174b565b8015610bb35780601f10610b8857610100808354040283529160200191610bb3565b820191906000526020600020905b815481529060010190602001808311610b9657829003601f168201915b505050505090806002018054610bc89061174b565b80601f0160208091040260200160405190810160405280929190818152602001828054610bf49061174b565b8015610c415780601f10610c1657610100808354040283529160200191610c41565b820191906000526020600020905b815481529060010190602001808311610c2457829003601f168201915b505050505090806003018054610c569061174b565b80601f0160208091040260200160405190810160405280929190818152602001828054610c829061174b565b8015610ccf5780601f10610ca457610100808354040283529160200191610ccf565b820191906000526020600020905b815481529060010190602001808311610cb257829003601f168201915b505050505090806004018054610ce49061174b565b80601f0160208091040260200160405190810160405280929190818152602001828054610d109061174b565b8015610d5d5780601f10610d3257610100808354040283529160200191610d5d565b820191906000526020600020905b815481529060010190602001808311610d4057829003601f168201915b505050505090806005018054610d729061174b565b80601f0160208091040260200160405190810160405280929190818152602001828054610d9e9061174b565b8015610deb5780601f10610dc057610100808354040283529160200191610deb565b820191906000526020600020905b815481529060010190602001808311610dce57829003601f168201915b5050505050908060060154905087565b8060029080519060200190610e11929190610f6b565b5050565b600080815480929190610e27906117ac565b91905055506040518060e00160405280600054815260200186815260200185815260200184815260200183815260200182815260200160008152506003600080548152602001908152602001600020600082015181600001556020820151816001019080519060200190610e9c929190610f6b565b506040820151816002019080519060200190610eb9929190610f6b565b506060820151816003019080519060200190610ed6929190610f6b565b506080820151816004019080519060200190610ef3929190610f6b565b5060a0820151816005019080519060200190610f10929190610f6b565b5060c082015181600601559050507f433a18528217354cd75b4fac452c732cd3c7637c56825af075741db12ef8b02260005486868686866000604051610f5c979695949392919061188d565b60405180910390a15050505050565b828054610f779061174b565b90600052602060002090601f016020900481019282610f995760008555610fe0565b82601f10610fb257805160ff1916838001178555610fe0565b82800160010185558215610fe0579182015b82811115610fdf578251825591602001919060010190610fc4565b5b509050610fed9190610ff1565b5090565b5b8082111561100a576000816000905550600101610ff2565b5090565b6000604051905090565b600080fd5b600080fd5b600080fd5b600080fd5b6000601f19601f8301169050919050565b7f4e487b7100000000000000000000000000000000000000000000000000000000600052604160045260246000fd5b6110758261102c565b810181811067ffffffffffffffff821117156110945761109361103d565b5b80604052505050565b60006110a761100e565b90506110b3828261106c565b919050565b600067ffffffffffffffff8211156110d3576110d261103d565b5b6110dc8261102c565b9050602081019050919050565b82818337600083830152505050565b600061110b611106846110b8565b61109d565b90508281526020810184848401111561112757611126611027565b5b6111328482856110e9565b509392505050565b600082601f83011261114f5761114e611022565b5b813561115f8482602086016110f8565b91505092915050565b60006020828403121561117e5761117d611018565b5b600082013567ffffffffffffffff81111561119c5761119b61101d565b5b6111a88482850161113a565b91505092915050565b600081519050919050565b600082825260208201905092915050565b60005b838110156111eb5780820151818401526020810190506111d0565b838111156111fa576000848401525b50505050565b600061120b826111b1565b61121581856111bc565b93506112258185602086016111cd565b61122e8161102c565b840191505092915050565b600060408201905081810360008301526112538185611200565b905081810360208301526112678184611200565b90509392505050565b6000819050919050565b61128381611270565b82525050565b600060208201905061129e600083018461127a565b92915050565b6112ad81611270565b81146112b857600080fd5b50565b6000813590506112ca816112a4565b92915050565b600080604083850312156112e7576112e6611018565b5b60006112f5858286016112bb565b925050602083013567ffffffffffffffff8111156113165761131561101d565b5b6113228582860161113a565b9150509250929050565b60008060006060848603121561134557611344611018565b5b600084013567ffffffffffffffff8111156113635761136261101d565b5b61136f8682870161113a565b935050602084013567ffffffffffffffff8111156113905761138f61101d565b5b61139c8682870161113a565b925050604084013567ffffffffffffffff8111156113bd576113bc61101d565b5b6113c98682870161113a565b9150509250925092565b60008115159050919050565b6113e8816113d3565b82525050565b600060a08201905081810360008301526114088188611200565b9050818103602083015261141c8187611200565b905081810360408301526114308186611200565b905061143f60608301856113df565b81810360808301526114518184611200565b90509695505050505050565b6000806000806080858703121561147757611476611018565b5b600085013567ffffffffffffffff8111156114955761149461101d565b5b6114a18782880161113a565b945050602085013567ffffffffffffffff8111156114c2576114c161101d565b5b6114ce8782880161113a565b935050604085013567ffffffffffffffff8111156114ef576114ee61101d565b5b6114fb8782880161113a565b925050606085013567ffffffffffffffff81111561151c5761151b61101d565b5b6115288782880161113a565b91505092959194509250565b6000602082019050818103600083015261154e8184611200565b905092915050565b60006020828403121561156c5761156b611018565b5b600061157a848285016112bb565b91505092915050565b600060e082019050611598600083018a61127a565b81810360208301526115aa8189611200565b905081810360408301526115be8188611200565b905081810360608301526115d28187611200565b905081810360808301526115e68186611200565b905081810360a08301526115fa8185611200565b905061160960c083018461127a565b98975050505050505050565b600080600080600060a0868803121561163157611630611018565b5b600086013567ffffffffffffffff81111561164f5761164e61101d565b5b61165b8882890161113a565b955050602086013567ffffffffffffffff81111561167c5761167b61101d565b5b6116888882890161113a565b945050604086013567ffffffffffffffff8111156116a9576116a861101d565b5b6116b58882890161113a565b935050606086013567ffffffffffffffff8111156116d6576116d561101d565b5b6116e28882890161113a565b925050608086013567ffffffffffffffff8111156117035761170261101d565b5b61170f8882890161113a565b9150509295509295909350565b7f4e487b7100000000000000000000000000000000000000000000000000000000600052602260045260246000fd5b6000600282049050600182168061176357607f821691505b602082108114156117775761177661171c565b5b50919050565b7f4e487b7100000000000000000000000000000000000000000000000000000000600052601160045260246000fd5b60006117b782611270565b91507fffffffffffffffffffffffffffffffffffffffffffffffffffffffffffffffff8214156117ea576117e961177d565b5b600182019050919050565b600081905092915050565b600061180b826111b1565b61181581856117f5565b93506118258185602086016111cd565b80840191505092915050565b600061183d8284611800565b915081905092915050565b6000819050919050565b6000819050919050565b600061187761187261186d84611848565b611852565b611270565b9050919050565b6118878161185c565b82525050565b600060e0820190506118a2600083018a61127a565b81810360208301526118b48189611200565b905081810360408301526118c88188611200565b905081810360608301526118dc8187611200565b905081810360808301526118f08186611200565b905081810360a08301526119048185611200565b905061191360c083018461187e565b9897505050505050505056fea2646970667358221220b6b25584c54ac8f17fe65fbf7cd7eda730eb2373b6a2e7a9b59ceeb8b2e2e68d64736f6c634300080c0033",
  "immutableReferences": {},
  "source": "// SPDX-License-Identifier: MIT\npragma solidity >=0.4.22 <0.9.0;\ncontract Evote{\n    uint public candidatesCount=0;\n    uint public userCount=0;\n    string public changeState=\"\";\n mapping(uint => candidates) public candidatesList;\n mapping(string => email) public emailList;\n mapping(string => aadhar) public aadharList;\n mapping(string => user) public usersList;\n\n struct user{\n      string username;\n      string email;\n      string password;\n      bool isVoted;\n      string aadhar;\n      \n  }\n struct email{\n      string accountAddress;\n      string aadhar;\n  }\n struct aadhar{\n      string accountAddress;\n      string email;\n  }\n \n  struct candidates{\n      uint id;\n      string name;\n      string age;\n      string party;\n      string qualification;\n      string imageUrl;\n      uint voteCount;\n  }\n\n  // events\n\n   event userCreated(\n      string username,\n      string email,\n      string password,\n      bool isVoted,\n      string aadhar\n      \n    );\n\n   event emailCreated(\n      string accountAddress,\n      string aadhar\n    );\n   event aadharCreated(\n      string accountAddress,\n      string email\n    );\n   event candidatesCreated(\n      uint id,\n      string name,\n      string age,\n      string party,\n      string qualification,\n      string imageUrl,\n      uint voteCount\n    );\n\n   \n    function createUser(string memory _username,string memory _email,string memory _password,string memory _aadhar ) public {\n      \n        userCount++;\n\n        usersList[_email] = user(_username,_email,_password,false,_aadhar);\n      \n        emit userCreated(_username,_email,_password,false,_aadhar);\n    }\n\n function createCandidate(\n    string memory _name,\n    string memory _age,\n    string memory _party,\n    string memory _qualification,\n    string memory _imageUrl\n) public {\n    candidatesCount++;\n    candidatesList[candidatesCount] = candidates(\n        candidatesCount,\n        _name,\n        _age,\n        _party,\n        _qualification,\n        _imageUrl,\n        0\n    );\n\n    emit candidatesCreated(\n        candidatesCount,\n        _name,\n        _age,\n        _party,\n        _qualification,\n        _imageUrl,\n        0\n    );\n}\n\n  function addVote(uint id,string memory _email) public {\n        \n        candidatesList[id].voteCount++;\n        usersList[_email].isVoted=true;\n      \n    }\n  function changeStates(string memory _name) public {\n\n        changeState=_name;\n    }\n\n    function appendIsVote(string memory _email) public {\n\n         usersList[_email].isVoted=true;\n    }\n\n  function createAdharEmail(string memory _aadharNum, string memory _accountAddress,string memory _email) public {\n        aadharList[_aadharNum] = aadhar(_accountAddress,_email);\n\n        usersList[_email].aadhar=_aadharNum;\n\n        emit aadharCreated(_accountAddress, _email);\n  }\n  \n\n}",
  "sourcePath": "/Users/sohibjonhakimov/e-voting-block-main/src/contracts/Evote.sol",
  "compiler": {
    "name": "solc",
    "version": "0.8.12+commit.f00d7308.Emscripten.clang"
  },
  "schemaVersion": "3.4.16",
  "updatedAt": "2025-04-22T11:26:31.855Z",
  "networkType": "ethereum",
  "devdoc": {
    "kind": "dev",
    "methods": {},
    "version": 1
  },
  "userdoc": {
    "kind": "user",
    "methods": {},
    "version": 1
  }
}